{
  "contractName": "HelloWorld",
  "abi": [
    {
      "inputs": [],
      "name": "greet",
      "outputs": [
        {
          "internalType": "string",
          "name": "",
          "type": "string"
        }
      ],
      "stateMutability": "view",
      "type": "function"
    },
    {
      "inputs": [
        {
          "internalType": "string",
          "name": "name",
          "type": "string"
        }
      ],
      "name": "setName",
      "outputs": [],
      "stateMutability": "nonpayable",
      "type": "function"
    },
    {
      "inputs": [],
      "name": "getName",
      "outputs": [
        {
          "internalType": "string",
          "name": "name",
          "type": "string"
        }
      ],
      "stateMutability": "view",
      "type": "function"
    },
    {
      "inputs": [
        {
          "internalType": "uint256",
          "name": "num",
          "type": "uint256"
        }
      ],
      "name": "store",
      "outputs": [],
      "stateMutability": "nonpayable",
      "type": "function"
    },
    {
      "inputs": [],
      "name": "retrieve",
      "outputs": [
        {
          "internalType": "uint256",
          "name": "",
          "type": "uint256"
        }
      ],
      "stateMutability": "view",
      "type": "function"
    }
  ],
  "bytecode": "0x60806040526040518060400160405280600c81526020017f48656c6c6f20576f726c642100000000000000000000000000000000000000008152506000908051906020019061004f929190610062565b5034801561005c57600080fd5b50610166565b82805461006e90610105565b90600052602060002090601f01602090048101928261009057600085556100d7565b82601f106100a957805160ff19168380011785556100d7565b828001600101855582156100d7579182015b828111156100d65782518255916020019190600101906100bb565b5b5090506100e491906100e8565b5090565b5b808211156101015760008160009055506001016100e9565b5090565b6000600282049050600182168061011d57607f821691505b6020821081141561013157610130610137565b5b50919050565b7f4e487b7100000000000000000000000000000000000000000000000000000000600052602260045260246000fd5b610602806101756000396000f3fe608060405234801561001057600080fd5b50600436106100575760003560e01c806317d7de7c1461005c5780632e64cec11461007a5780636057361d14610098578063c47f0027146100b4578063cfae3217146100d0575b600080fd5b6100646100ee565b604051610071919061040e565b60405180910390f35b610082610180565b60405161008f9190610430565b60405180910390f35b6100b260048036038101906100ad919061039d565b61018a565b005b6100ce60048036038101906100c9919061035c565b610194565b005b6100d86101ae565b6040516100e5919061040e565b60405180910390f35b6060600180546100fd90610514565b80601f016020809104026020016040519081016040528092919081815260200182805461012990610514565b80156101765780601f1061014b57610100808354040283529160200191610176565b820191906000526020600020905b81548152906001019060200180831161015957829003601f168201915b5050505050905090565b6000600254905090565b8060028190555050565b80600190805190602001906101aa92919061023c565b5050565b600080546101bb90610514565b80601f01602080910402602001604051908101604052809291908181526020018280546101e790610514565b80156102345780601f1061020957610100808354040283529160200191610234565b820191906000526020600020905b81548152906001019060200180831161021757829003601f168201915b505050505081565b82805461024890610514565b90600052602060002090601f01602090048101928261026a57600085556102b1565b82601f1061028357805160ff19168380011785556102b1565b828001600101855582156102b1579182015b828111156102b0578251825591602001919060010190610295565b5b5090506102be91906102c2565b5090565b5b808211156102db5760008160009055506001016102c3565b5090565b60006102f26102ed8461047c565b61044b565b90508281526020810184848401111561030a57600080fd5b6103158482856104d2565b509392505050565b600082601f83011261032e57600080fd5b813561033e8482602086016102df565b91505092915050565b600081359050610356816105b5565b92915050565b60006020828403121561036e57600080fd5b600082013567ffffffffffffffff81111561038857600080fd5b6103948482850161031d565b91505092915050565b6000602082840312156103af57600080fd5b60006103bd84828501610347565b91505092915050565b60006103d1826104ac565b6103db81856104b7565b93506103eb8185602086016104e1565b6103f4816105a4565b840191505092915050565b610408816104c8565b82525050565b6000602082019050818103600083015261042881846103c6565b905092915050565b600060208201905061044560008301846103ff565b92915050565b6000604051905081810181811067ffffffffffffffff8211171561047257610471610575565b5b8060405250919050565b600067ffffffffffffffff82111561049757610496610575565b5b601f19601f8301169050602081019050919050565b600081519050919050565b600082825260208201905092915050565b6000819050919050565b82818337600083830152505050565b60005b838110156104ff5780820151818401526020810190506104e4565b8381111561050e576000848401525b50505050565b6000600282049050600182168061052c57607f821691505b602082108114156105405761053f610546565b5b50919050565b7f4e487b7100000000000000000000000000000000000000000000000000000000600052602260045260246000fd5b7f4e487b7100000000000000000000000000000000000000000000000000000000600052604160045260246000fd5b6000601f19601f8301169050919050565b6105be816104c8565b81146105c957600080fd5b5056fea26469706673582212200bc6d0c80198b8b8844a04bd1bd3a10a1ac9d9ce84d286e6ba7c6023408b706d64736f6c63430008000033",
  "immutableReferences": {},
  "source": "// SPDX-License-Identifier: MIT\n// compiler version must be greater than or equal to 0.8.3 and less than 0.8.0\npragma solidity ^0.8.0;\n\ncontract HelloWorld {\n    string public greet = \"Hello World!\";\n    string _name;\n    uint256 number;\n\n    function setName(string memory name) public {\n        _name = name;\n    }\n\n    function getName() public view returns (string memory name) {\n        return _name;\n    }\n    \n    /**\n     * @dev Store value in variable\n     * @param num value to store\n     */\n    function store(uint256 num) public {\n        number = num;\n    }\n\n    /**\n     * @dev Return value \n     * @return value of 'number'\n     */\n    function retrieve() public view returns (uint256){\n        return number;\n    }\n}",
  "sourcePath": "/Users/terry/go/src/github.com/terry108/sol-example/1-basic/01-hello/contracts/HelloWorld.sol",
  "compiler": {
    "name": "solc",
    "version": "0.8.0+commit.c7dfd78e.Emscripten.clang"
  },
  "schemaVersion": "3.4.3",
  "updatedAt": "2021-09-06T06:37:01.311Z",
  "devdoc": {
    "kind": "dev",
    "methods": {
      "retrieve()": {
        "details": "Return value ",
        "returns": {
          "_0": "value of 'number'"
        }
      },
      "store(uint256)": {
        "details": "Store value in variable",
        "params": {
          "num": "value to store"
        }
      }
    },
    "version": 1
  },
  "userdoc": {
    "kind": "user",
    "methods": {},
    "version": 1
  }
}